S01400004C6162365F426F746F6E65732E7372656392
S11300000C9434000C9451000C9451000C94EE00A8
S11300100C9412020C9436030C9451000C9451006D
S11300200C9451000C9451000C9451000C94510008
S11300300C9451000C9451000C9451000C945100F8
S11300400C9451000C9451000C9451000C945100E8
S11300500C94A7000C9451000C9451000C94510082
S11300600C9451000C94510011241FBECFEFD8E022
S1130070DEBFCDBF11E0A0E0B1E0EEE1FAE002C0E6
S113008005900D92A830B107D9F721E0A8E0B1E0BE
S113009001C01D92AE32B207E1F70E945A040C94DB
S11300A00D050C9400001092C50087E68093C400EF
S11300B088E48093C10086E08093C2000895DC0147
S11300C042C0119620910D0130E02F5F3F4F2F71F8
S11300D03078332334F421503109206E3F6F2F5F81
S11300E03F4F90910C012917E1F3E0910D01F0E0ED
S11300F0E25FFE4F808320930D0180910B018111FB
S113010022C090910D0180910C019817E1F081E0DB
S113011080930B01E0910C01F0E0E25FFE4F8081DF
S11301208093C60020910C0130E02F5F3F4F2F7168
S11301303078332334F421503109206E3F6F2F5F20
S11301403F4F20930C018C918111BBCF08951F92D6
S11301500F920FB60F9211248F939F93EF93FF93F7
S113016090910D0180910C019817B9F0E0910C0168
S1130170F0E0E25FFE4F80818093C60080910C0125
S113018090E001968F719078992324F40197806E02
S11301909F6F019680930C0102C010920B01FF9196
S11301A0EF919F918F910F900FBE0F901F90189514
S11301B087E08093680088E180936B008CE08093F3
S11301C06C0084E280936D0083B180930A0186B150
S11301D08093090189B18093080108951F920F92B9
S11301E00FB60F9211242F933F934F935F938F93E6
S11301F09F93EF93FF9323B180910A01822783FF9A
S113020086C023FD84C040910D0150E04F5F5F4FD5
S11302104F715078552334F441505109406E5F6F4B
S11302204F5F5F4F90910C014917E1F3E0910D018D
S1130230F0E0E25FFE4F94E4908340930D019091CF
S11302400B01911122C030910D0190910C013917CD
S1130250E1F091E090930B01E0910C01F0E0E25F9A
S1130260FE4F90819093C60040910C0150E04F5F87
S11302705F4F4F715078552334F441505109406E0B
S11302805F6F4F5F5F4F40930C0140910D0150E051
S11302904F5F5F4F4F715078552334F441505109EB
S11302A0406E5F6F4F5F5F4F90910C014917E1F310
S11302B0E0910D01F0E0E25FFE4F9AE090834093FD
S11302C00D0190910B01911122C030910D0190917B
S11302D00C013917E1F091E090930B01E0910C01CE
S11302E0F0E0E25FFE4F90819093C60040910C01D4
S11302F050E04F5F5F4F4F715078552334F44150B5
S11303005109406E5F6F4F5F5F4F40930C0184FF54
S11303107AC024FD78C080910D0190E001968F7120
S11303209078992324F40197806E9F6F01969091A1
S11303300C018917E1F3E0910D01F0E0E25FFE4F5B
S113034092E5908380930D0180910B0181111FC070
S113035090910D0180910C019817C9F081E0809370
S11303600B01E0910C01F0E0E25FFE4F808180938D
S1130370C60080910C0190E001968F7190789923CA
S113038024F40197806E9F6F019680930C018091F5
S11303900D0190E001968F719078992324F40197D0
S11303A0806E9F6F019690910C018917E1F3E091A3
S11303B00D01F0E0E25FFE4F9AE0908380930D011F
S11303C080910B0181111FC090910D0180910C014E
S11303D09817C9F081E080930B01E0910C01F0E0E3
S11303E0E25FFE4F80818093C60080910C0190E013
S11303F001968F719078992324F40197806E9F6FF2
S1130400019680930C0120930A01FF91EF919F9133
S11304108F915F914F913F912F910F900FBE0F904D
S11304201F9018951F920F920FB60F9211242F93BD
S11304303F934F935F938F939F93EF93FF9326B1D3
S113044080910901822783FF86C023FD84C04091E7
S11304500D0150E04F5F5F4F4F715078552334F4D6
S113046041505109406E5F6F4F5F5F4F90910C0197
S11304704917E1F3E0910D01F0E0E25FFE4F95E5ED
S1130480908340930D0190910B01911122C0309102
S11304900D0190910C013917E1F091E090930B015B
S11304A0E0910C01F0E0E25FFE4F90819093C60072
S11304B040910C0150E04F5F5F4F4F7150785523CE
S11304C034F441505109406E5F6F4F5F5F4F40936A
S11304D00C0140910D0150E04F5F5F4F4F71507818
S11304E0552334F441505109406E5F6F4F5F5F4FA5
S11304F090910C014917E1F3E0910D01F0E0E25F06
S1130500FE4F9AE0908340930D0190910B0191115D
S113051022C030910D0190910C013917E1F091E066
S113052090930B01E0910C01F0E0E25FFE4F9081AB
S11305309093C60040910C0150E04F5F5F4F4F71A4
S11305405078552334F441505109406E5F6F4F5F2A
S11305505F4F40930C0182FF7AC022FD78C08091E6
S11305600D0190E001968F719078992324F40197FE
S1130570806E9F6F019690910C018917E1F3E091D1
S11305800D01F0E0E25FFE4F9CE4908380930D0147
S113059080910B0181111FC090910D0180910C017C
S11305A09817C9F081E080930B01E0910C01F0E011
S11305B0E25FFE4F80818093C60080910C0190E041
S11305C001968F719078992324F40197806E9F6F20
S11305D0019680930C0180910D0190E001968F713A
S11305E09078992324F40197806E9F6F01969091DF
S11305F00C018917E1F3E0910D01F0E0E25FFE4F99
S11306009AE0908380930D0180910B0181111FC0AA
S113061090910D0180910C019817C9F081E08093AD
S11306200B01E0910C01F0E0E25FFE4F80818093CA
S1130630C60080910C0190E001968F719078992307
S113064024F40197806E9F6F019680930C01209390
S11306500901FF91EF919F918F915F914F913F918C
S11306602F910F900FBE0F901F9018951F920F920D
S11306700FB60F9211242F933F934F935F938F9351
S11306809F93EF93FF9329B180910801822785FFFF
S113069086C025FD84C040910D0150E04F5F5F4F3F
S11306A04F715078552334F441505109406E5F6FB7
S11306B04F5F5F4F90910C014917E1F3E0910D01F9
S11306C0F0E0E25FFE4F91E4908340930D0190913E
S11306D00B01911122C030910D0190910C01391739
S11306E0E1F091E090930B01E0910C01F0E0E25F06
S11306F0FE4F90819093C60040910C0150E04F5FF3
S11307005F4F4F715078552334F441505109406E76
S11307105F6F4F5F5F4F40930C0140910D0150E0BC
S11307204F5F5F4F4F715078552334F44150510956
S1130730406E5F6F4F5F5F4F90910C014917E1F37B
S1130740E0910D01F0E0E25FFE4F9AE09083409368
S11307500D0190910B01911122C030910D019091E6
S11307600C013917E1F091E090930B01E0910C0139
S1130770F0E0E25FFE4F90819093C60040910C013F
S113078050E04F5F5F4F4F715078552334F4415020
S11307905109406E5F6F4F5F5F4F40930C0182FFC2
S11307A07AC022FD78C080910D0190E001968F718E
S11307B09078992324F40197806E9F6F019690910D
S11307C00C018917E1F3E0910D01F0E0E25FFE4FC7
S11307D092E4908380930D0180910B0181111FC0DD
S11307E090910D0180910C019817C9F081E08093DC
S11307F00B01E0910C01F0E0E25FFE4F80818093F9
S1130800C60080910C0190E001968F719078992335
S113081024F40197806E9F6F019680930C01809160
S11308200D0190E001968F719078992324F401973B
S1130830806E9F6F019690910C018917E1F3E0910E
S11308400D01F0E0E25FFE4F9AE0908380930D018A
S113085080910B0181111FC090910D0180910C01B9
S11308609817C9F081E080930B01E0910C01F0E04E
S1130870E25FFE4F80818093C60080910C0190E07E
S113088001968F719078992324F40197806E9F6F5D
S1130890019680930C0120930801FF91EF919F91A1
S11308A08F915F914F913F912F910F900FBE0F90B9
S11308B01F90189584B1877E84B985B1886185B904
S11308C087B1837F87B988B18C6088B98AB18B7D01
S11308D08AB98BB184628BB90E9453000E94D800FC
S11308E078942FEF89E698E1215080409040E1F719
S11308F000C0000080E091E00E945F0080E090E092
S11309000196883EE3E09E0708F480C080910D01C3
S113091090E001968F719078992324F40197806E6A
S11309209F6F019690910C018917E1F3E0910D01FD
S1130930F0E0E25FFE4F98E4908380930D01809194
S11309400B0181111FC090910D0180910C0198172A
S1130950C9F081E080930B01E0910C01F0E0E25FCB
S1130960FE4F80818093C60080910C0190E0019637
S11309708F719078992324F40197806E9F6F01966C
S113098080930C0180910D0190E001968F71907815
S1130990992324F40197806E9F6F019690910C0126
S11309A08917E1F3E0910D01F0E0E25FFE4F9AE078
S11309B0908380930D0180910B01811122C090914D
S11309C00D0180910C019817F9F081E080930B01DF
S11309D0E0910C01F0E0E25FFE4F80818093C6005D
S11309E080910C0190E001968F719078992324F402
S11309F00197806E9F6F019680930C0180E090E0D8
S1130A0005C080E090E002C080E090E0EFE3FCE904
S1110A103197F1F700C0000073CFF894FFCFC8
S10B0A1E53544152540A000034
S9030000FC
